{
  "contractName": "TaskContract",
  "abi": [
    {
      "anonymous": false,
      "inputs": [
        {
          "indexed": false,
          "internalType": "address",
          "name": "receipient",
          "type": "address"
        },
        {
          "indexed": false,
          "internalType": "uint256",
          "name": "taskId",
          "type": "uint256"
        }
      ],
      "name": "AddTask",
      "type": "event"
    },
    {
      "anonymous": false,
      "inputs": [
        {
          "indexed": false,
          "internalType": "uint256",
          "name": "taskId",
          "type": "uint256"
        },
        {
          "indexed": false,
          "internalType": "bool",
          "name": "isDeleted",
          "type": "bool"
        }
      ],
      "name": "DeleteTask",
      "type": "event"
    },
    {
      "inputs": [
        {
          "internalType": "string",
          "name": "taskText",
          "type": "string"
        },
        {
          "internalType": "bool",
          "name": "isDeleted",
          "type": "bool"
        }
      ],
      "name": "addTask",
      "outputs": [],
      "stateMutability": "nonpayable",
      "type": "function"
    },
    {
      "inputs": [],
      "name": "getMyTasks",
      "outputs": [
        {
          "components": [
            {
              "internalType": "uint256",
              "name": "id",
              "type": "uint256"
            },
            {
              "internalType": "string",
              "name": "taskText",
              "type": "string"
            },
            {
              "internalType": "bool",
              "name": "isDeleted",
              "type": "bool"
            }
          ],
          "internalType": "struct TaskContract.Task[]",
          "name": "",
          "type": "tuple[]"
        }
      ],
      "stateMutability": "view",
      "type": "function"
    },
    {
      "inputs": [
        {
          "internalType": "uint256",
          "name": "taskId",
          "type": "uint256"
        }
      ],
      "name": "deleteTask",
      "outputs": [],
      "stateMutability": "nonpayable",
      "type": "function"
    }
  ],
  "bytecode": "0x608060405234801561001057600080fd5b50610ea8806100206000396000f3fe608060405234801561001057600080fd5b50600436106100415760003560e01c806320df458114610046578063560f3192146100625780636e13f8181461007e575b600080fd5b610060600480360381019061005b919061074e565b61009c565b005b61007c600480360381019061007791906107e0565b6101bf565b005b6100866102a1565b60405161009391906109c5565b60405180910390f35b60008080549050905060006040518060600160405280838152602001858152602001841515815250908060018154018082558091505060019003906000526020600020906003020160009091909190915060008201518160000155602082015181600101908161010c9190610bf3565b5060408201518160020160006101000a81548160ff0219169083151502179055505050336001600083815260200190815260200160002060006101000a81548173ffffffffffffffffffffffffffffffffffffffff021916908373ffffffffffffffffffffffffffffffffffffffff1602179055507f1f54e1ba1832d428fbd7e7792beaf62b1fc5a382c207ffd614209c1413e94fda33826040516101b2929190610d15565b60405180910390a1505050565b3373ffffffffffffffffffffffffffffffffffffffff166001600083815260200190815260200160002060009054906101000a900473ffffffffffffffffffffffffffffffffffffffff1673ffffffffffffffffffffffffffffffffffffffff160361029e5760016000828154811061023b5761023a610d3e565b5b906000526020600020906003020160020160006101000a81548160ff0219169083151502179055507ff88a35c3d2016c409a46570b994a17b408dbc83c14a03f521512d50b85386d06816001604051610295929190610d7c565b60405180910390a15b50565b60606000808054905067ffffffffffffffff8111156102c3576102c26105eb565b5b6040519080825280602002602001820160405280156102fc57816020015b6102e9610599565b8152602001906001900390816102e15790505b5090506000805b6000805490508110156104de573373ffffffffffffffffffffffffffffffffffffffff166001600083815260200190815260200160002060009054906101000a900473ffffffffffffffffffffffffffffffffffffffff1673ffffffffffffffffffffffffffffffffffffffff161480156103b45750600015156000828154811061039157610390610d3e565b5b906000526020600020906003020160020160009054906101000a900460ff161515145b156104cb57600081815481106103cd576103cc610d3e565b5b90600052602060002090600302016040518060600160405290816000820154815260200160018201805461040090610a16565b80601f016020809104026020016040519081016040528092919081815260200182805461042c90610a16565b80156104795780601f1061044e57610100808354040283529160200191610479565b820191906000526020600020905b81548152906001019060200180831161045c57829003601f168201915b505050505081526020016002820160009054906101000a900460ff1615151515815250508383815181106104b0576104af610d3e565b5b60200260200101819052506001826104c89190610dd4565b91505b80806104d690610e2a565b915050610303565b5060008167ffffffffffffffff8111156104fb576104fa6105eb565b5b60405190808252806020026020018201604052801561053457816020015b610521610599565b8152602001906001900390816105195790505b50905060005b815181101561058f5783818151811061055657610555610d3e565b5b602002602001015182828151811061057157610570610d3e565b5b6020026020010181905250808061058790610e2a565b91505061053a565b5080935050505090565b604051806060016040528060008152602001606081526020016000151581525090565b6000604051905090565b600080fd5b600080fd5b600080fd5b600080fd5b6000601f19601f8301169050919050565b7f4e487b7100000000000000000000000000000000000000000000000000000000600052604160045260246000fd5b610623826105da565b810181811067ffffffffffffffff82111715610642576106416105eb565b5b80604052505050565b60006106556105bc565b9050610661828261061a565b919050565b600067ffffffffffffffff821115610681576106806105eb565b5b61068a826105da565b9050602081019050919050565b82818337600083830152505050565b60006106b96106b484610666565b61064b565b9050828152602081018484840111156106d5576106d46105d5565b5b6106e0848285610697565b509392505050565b600082601f8301126106fd576106fc6105d0565b5b813561070d8482602086016106a6565b91505092915050565b60008115159050919050565b61072b81610716565b811461073657600080fd5b50565b60008135905061074881610722565b92915050565b60008060408385031215610765576107646105c6565b5b600083013567ffffffffffffffff811115610783576107826105cb565b5b61078f858286016106e8565b92505060206107a085828601610739565b9150509250929050565b6000819050919050565b6107bd816107aa565b81146107c857600080fd5b50565b6000813590506107da816107b4565b92915050565b6000602082840312156107f6576107f56105c6565b5b6000610804848285016107cb565b91505092915050565b600081519050919050565b600082825260208201905092915050565b6000819050602082019050919050565b610842816107aa565b82525050565b600081519050919050565b600082825260208201905092915050565b60005b83811015610882578082015181840152602081019050610867565b83811115610891576000848401525b50505050565b60006108a282610848565b6108ac8185610853565b93506108bc818560208601610864565b6108c5816105da565b840191505092915050565b6108d981610716565b82525050565b60006060830160008301516108f76000860182610839565b506020830151848203602086015261090f8282610897565b915050604083015161092460408601826108d0565b508091505092915050565b600061093b83836108df565b905092915050565b6000602082019050919050565b600061095b8261080d565b6109658185610818565b93508360208202850161097785610829565b8060005b858110156109b35784840389528151610994858261092f565b945061099f83610943565b925060208a0199505060018101905061097b565b50829750879550505050505092915050565b600060208201905081810360008301526109df8184610950565b905092915050565b7f4e487b7100000000000000000000000000000000000000000000000000000000600052602260045260246000fd5b60006002820490506001821680610a2e57607f821691505b602082108103610a4157610a406109e7565b5b50919050565b60008190508160005260206000209050919050565b60006020601f8301049050919050565b600082821b905092915050565b600060088302610aa97fffffffffffffffffffffffffffffffffffffffffffffffffffffffffffffffff82610a6c565b610ab38683610a6c565b95508019841693508086168417925050509392505050565b6000819050919050565b6000610af0610aeb610ae6846107aa565b610acb565b6107aa565b9050919050565b6000819050919050565b610b0a83610ad5565b610b1e610b1682610af7565b848454610a79565b825550505050565b600090565b610b33610b26565b610b3e818484610b01565b505050565b5b81811015610b6257610b57600082610b2b565b600181019050610b44565b5050565b601f821115610ba757610b7881610a47565b610b8184610a5c565b81016020851015610b90578190505b610ba4610b9c85610a5c565b830182610b43565b50505b505050565b600082821c905092915050565b6000610bca60001984600802610bac565b1980831691505092915050565b6000610be38383610bb9565b9150826002028217905092915050565b610bfc82610848565b67ffffffffffffffff811115610c1557610c146105eb565b5b610c1f8254610a16565b610c2a828285610b66565b600060209050601f831160018114610c5d5760008415610c4b578287015190505b610c558582610bd7565b865550610cbd565b601f198416610c6b86610a47565b60005b82811015610c9357848901518255600182019150602085019450602081019050610c6e565b86831015610cb05784890151610cac601f891682610bb9565b8355505b6001600288020188555050505b505050505050565b600073ffffffffffffffffffffffffffffffffffffffff82169050919050565b6000610cf082610cc5565b9050919050565b610d0081610ce5565b82525050565b610d0f816107aa565b82525050565b6000604082019050610d2a6000830185610cf7565b610d376020830184610d06565b9392505050565b7f4e487b7100000000000000000000000000000000000000000000000000000000600052603260045260246000fd5b610d7681610716565b82525050565b6000604082019050610d916000830185610d06565b610d9e6020830184610d6d565b9392505050565b7f4e487b7100000000000000000000000000000000000000000000000000000000600052601160045260246000fd5b6000610ddf826107aa565b9150610dea836107aa565b9250827fffffffffffffffffffffffffffffffffffffffffffffffffffffffffffffffff03821115610e1f57610e1e610da5565b5b828201905092915050565b6000610e35826107aa565b91507fffffffffffffffffffffffffffffffffffffffffffffffffffffffffffffffff8203610e6757610e66610da5565b5b60018201905091905056fea2646970667358221220b90e2d274fda526ed82e319d04f6ccbae8a2b4b9676e6b81b128e8bd4837e6ca64736f6c634300080f0033",
  "immutableReferences": {},
  "source": "// SPDX-License-Identifier: MIT\npragma solidity >=0.4.22 <0.9.0;\n\ncontract TaskContract {\n \n\n  event AddTask(address receipient, uint taskId );\n  event DeleteTask(uint taskId, bool isDeleted);\n\n  struct Task{\n    uint id; string taskText; bool isDeleted;\n  }\n\n  Task[] private tasks;\n\n  mapping(uint256=>address) taskToOwner;\n\n\n  function addTask(string memory taskText, bool isDeleted) external {\n    uint taskId=tasks.length;\n    tasks.push(Task(taskId, taskText, isDeleted));\n    taskToOwner[taskId]=msg.sender;\n    emit AddTask(msg.sender, taskId);\n  }\n\n  // get tasks that are mine and not yet deleted\n  function getMyTasks()external view returns(Task[] memory){\n    Task[] memory temporary = new Task[](tasks.length);\n    uint counter=0;\n\n\n    for(uint i=0; i<tasks.length; i++){\n      if(taskToOwner[i]== msg.sender && tasks[i].isDeleted==false){\n        temporary[counter]= tasks[i];\n        counter+=1;\n        \n      }\n    }\n\n    Task[] memory result= new Task[](counter);\n\n    for(uint i=0; i<result.length;i++){\n      result[i]= temporary[i];\n    }\n\n\n      return result;\n    }\n\n    function deleteTask(uint taskId)external{\n      if(taskToOwner[taskId]==msg.sender){\n        tasks[taskId].isDeleted = true;\n        emit DeleteTask(taskId, true);\n      }\n    }\n\n  \n}\n",
  "sourcePath": "/home/runner/Solidity-Todo-List-with-Nextjs-Tailwind-CSS-Template/backend/contracts/TaskContract.sol",
  "compiler": {
    "name": "solc",
    "version": "0.8.15+commit.e14f2714.Emscripten.clang"
  },
  "schemaVersion": "3.4.8",
  "updatedAt": "2022-09-27T10:55:38.934Z",
  "devdoc": {
    "kind": "dev",
    "methods": {},
    "version": 1
  },
  "userdoc": {
    "kind": "user",
    "methods": {},
    "version": 1
  }
}